:020000040000FA
:060000000A128A110C280F
:10000800FE00030EF7000A08F8000A128A1179297F
:100018000A128A110F28F001F101F201F301F4012B
:10002800F50183010A128A112F29F128831203137B
:10003800091089100911061822282328282886184B
:10004800262827282828F501061C2B282C283228A2
:1000580086182F2830283228F501F50A0618352881
:1000680036283C28861C39283A283C280330F500D5
:10007800061C3F2840280529861C432844280529B2
:100088000230F500052983120313091106184D28BB
:100098004E28542886185128522854280430F50030
:1000A8000618572858285B280330F50005298618B4
:1000B8005E285F280529F501F50A0529831203132F
:1000C800061C672868286F2886186B286C286F28F4
:1000D8000430F5000529061872287328792886182F
:1000E800762877287928F5010529061C7C287D289B
:1000F8000529442883120313061C83288428892889
:10010800861C8728882889286C28061C8C288D2816
:10011800A728861890289128A72809148910F5017E
:10012800F50A0130A2002208F4070A307406031DFC
:100138009E289F28A028F40174080A128A114E21CB
:100148000A128A1105290618AA28AB280529861C2F
:10015800AE28AF2805295828831203130618B52896
:10016800B628BB28861CB928BA28BB286C280618CC
:10017800BE28BF28D6288618C228C328D628091022
:100188008914F5017408031DCA28CB28CD280A3024
:10019800F4000130F40274080A128A114E210A127E
:1001A8008A110529061CD928DA280529861CDD2884
:1001B800DE2805294428831203130915091089101C
:1001C8008619E728E82805290530F50005290A12C7
:1001D8008A11AA210A128A1105297508003A0319F9
:1001E8007E28013A0319B028033A03194728013A2F
:1001F80003196228073A0319DF28013A03191A2854
:10020800EB28080083160317880189018316031356
:100218000614861406158615091189100910851209
:100228000A128A11B6210A128A110A128A11652144
:100238000A128A110A128A11C0210A128A118230FE
:10024800FA00DD30F900F90B2729FA0B27292C29A8
:100258008B168B17080083120313091009118910D4
:10026800851200300A128A114E210A128A110A12C6
:100278008A1106210A128A110A128A11AA210A125F
:100288008A110A128A1119200A128A1145290A129A
:100298008A110C28F9000A307902031854295529C3
:1002A80061297908013E84000A128A118D210A12F7
:1002B8008A118312031388006429831203138801A7
:1002C80008001930831603139900181518128312A1
:1002D800031398178316031387170717831203133B
:1002E800181683160313981608000B110730F6002A
:1002F80076088312031381070130F2070318F30A03
:100308000030F30778088A00770E8300FE0E7E0E11
:10031800090001308A000408840A820700343F3447
:1003280006345B344F3466346D347D3407347F349F
:1003380067348B13730883120313A1007208A0009B
:100348008B172108FA002008F90008000230F50090
:100358000A128A119D210A128A117A08F100790875
:10036800F000080083160313811281110108F8397F
:10037800013881008B160800831603138801831245
:06038800031388010800C8
:04400E00F12CFF3E54
:00000001FF
