:020000040000FA
:060000000A128A11FC2F18
:100F2C00831603178801890183160313061409110C
:100F3C0086148910061509108615851207100514DC
:100F4C0088018312031307108801F101F201831247
:100F5C00031307145330F000F00BB22F831203135A
:100F6C0007105330F000F00BB92F0130F1070318C4
:100F7C00F20A0030F2077208803AFF0083307F02D9
:100F8C00031DCA2FE8307102031CCD2FCE2FAD2FBD
:100F9C00831203130618D32FD42FD62F0915D72F4E
:100FAC0009118618DA2FDB2FDD2F8914DE2F89101B
:100FBC000619E12FE22FE42F0914E52F09108619E9
:100FCC00E82FE92FEB2F8516EC2F8512051CEF2F40
:100FDC00F02FF22F063088000518F52FF62FCE2FA4
:100FEC003F308800CE2F0A128A11002883010A1282
:040FFC008A11962F91
:04400E00F12CFF3E54
:00000001FF
